:040000000C942B0031
:100004000C9400000C9400000C9400000C9400006C
:100014000C9400000C9400000C9400000C9400005C
:100024000C949C000C9400000C9496090C94AA095E
:100034000C9400000C9400000C9400000C9400003C
:100044000C9400000C9400000C9400000C9400002C
:100054000000F894EE27ECBBF1E0FBBFEBBFE5BF7B
:10006400F8E1F1BDE1BD8DE0A2E0BB27ED938A95F7
:10007400E9F780E094E0A0E6ED930197E9F7E4E581
:10008400F0E085919591009761F0A591B591059067
:100094001590BF01F00105900D920197E1F7FB0166
:1000A400F0CFEFE5EDBFE4E0EEBFC0E6D1E00C94A5
:1000B4008300EFEFEBBBE0E0EABBEFEFE8BBEAEA7B
:1000C400E7BBEFEFE5BBE0E0E4BBE7EFE2BBE9E071
:1000D400E1BBE0E8E8B9E0E0E5BFEBBFE4E0E3BFA3
:1000E400ECE8E2BFE1E0E9BFE8BF0895E881E03071
:1000F40011F4C39A01C0C398552421960895F301BD
:100104000895F8940E945B006624772455240E9485
:10011400AE000E945B090E947C0578940E94DC0575
:10012400EAEF5E1628F05524E8B3A8E0EA27E8BB16
:10013400F5CFFFCFEA93FA93EFB7EA93E8B7E1601C
:10014400E8BFECE8E2BFF30131963F015394E99133
:10015400EFBFF991E9911895EFEFE8BBBE98E7B3CB
:10016400E26AE7BB442408951A93C798C19810E043
:10017400E9811E17A0F4EA81E17011F0C19A01C06F
:10018400C198EA81FB816C817D810E94ED09EA833B
:10019400FB836C837D83C79AC7981F5FE9CF18815F
:1001A4002696089524971A93E0E0E983EA83EB8383
:1001B400EC83C198C79810E0ED811E1740F5EE81DD
:1001C400E17011F0C59A01C0C598EE81FF81688580
:1001D40079850E94ED09EE83FF8368877987ED8135
:1001E400E150E11709F4C19AC79AB69B03C0EC81A8
:1001F400E068EC83E981FA816B817C810E94ED09DE
:10020400E983FA836B837C83C7981F5FD5CFE98129
:10021400FA816B817C8118812A96089524970E9423
:10022400FE0929853327F22FE0E0DF01E885F0E0BD
:10023400EA2BFB2B9F01EDE0F0E060E070E00E9410
:10024400F709E6E0EA930E94B600E5E0F0E060E03A
:1002540070E00E94F709E4E0EA930E94D400E3E02E
:10026400F0E060E070E00E94F709E4E0EA930E94A5
:10027400B600F901662777270E94F709EFE0EA93B1
:100284000E94D400EC83FD836E837F830E94F20975
:100294008F01F8010E94050A2A960895EFEFFFEFF7
:1002A40060E070E00E94F709E0E1EA930E94B60082
:1002B400E0E0F0E060E070E00E94F709E0E1EA933A
:1002C4000E94B600E3E0F0E060E070E00E94F7090D
:1002D400E4E0EA930E94B600ECE0F0E060E070E055
:1002E4000E94F709E4E0EA930E94D400E3E0F0E01E
:1002F40060E070E00E94F709E4E0EA930E94B6002F
:10030400E1E0F0E060E070E00E94F709EA930E9407
:10031400D400EDE0F0E060E070E00E94F709E6E070
:10032400EA930E94B600E4E0F0E060E070E00E942E
:10033400F709EA930E94D400E3E0F0E060E070E0A3
:100344000E94F709E4E0EA930E94B600E0E7F3EACA
:1003540060E070E00E94F709E0E1EA930E94D400B3
:100364000895E3E2EA93E0E0EA930E941001E3E3F4
:10037400EA93E0E0EA930E941001EDE0F0E060E02F
:1003840070E00E94F709E6E0EA930E94B600E4E018
:10039400F0E060E070E00E94F709EA930E94D40064
:1003A400E3E0F0E060E070E00E94F709E4E0EA9343
:1003B4000E94B600E0E0F0E060E070E00E94F7091F
:1003C400EFE0EA930E94D400EDE0F0E060E070E03A
:1003D4000E94F709E6E0EA930E94B600ECE0F0E040
:1003E40060E070E00E94F709E4E0EA930E94D40020
:1003F400E3E0F0E060E070E00E94F709E4E0EA93F3
:100404000E94B600E0E0F0E060E070E00E94F709CE
:10041400E1E0EA930E94D40008950E945001E1E0D3
:100424004E2E08950E94B30144240895E42D0895A6
:1004340024971A93E0E0E983EA83EB83EC83E3E215
:10044400EA93E8E0EA930E941001E3E0EA93E0E033
:10045400EA930E941001E2E3EA93E0E0EA930E9447
:100464001001E3E3EA93E0E0EA930E9410011E2FF7
:10047400E12FFF2766277727E983FA836B837C8341
:10048400E3E0EA93E1E0EA930E941001E2E3EA93F5
:10049400E0E0EA930E941001E3E3EA93E0E0EA93E8
:1004A4000E9410011E2FA981BA818B819C81E8E0F2
:1004B4000E94D509DF01CB01E12FFF2766277727AB
:1004C4000E94D009E983FA836B837C83E3E0EA9397
:1004D400E2E0EA930E941001E2E3EA93E0E0EA93A7
:1004E4000E941001E3E3EA93E0E0EA930E94100122
:1004F4001E2FA981BA818B819C81E8E00E94D509D5
:10050400DF01CB01E12FFF27662777270E94D0095F
:10051400E983FA836B837C831881259608951A9363
:10052400E3E2EA93E8E0EA930E941001E3E0EA934D
:10053400E0E0EA930E941001E6E3EA93E0E0EA9344
:100544000E941001E7E3EA93E0E0EA930E941001BD
:100554001E2FE12FDEC01A93E3E2EA93E4E0EA936C
:100564000E941001EAE3EA93E0E0EA930E9410019A
:10057400EBE3EA93E0E0EA930E9410011E2FE12FDF
:10058400C8C0E3E2EA93E0E4EA930E941001E3E1E5
:10059400EA93E981EA930E941001EBE3EA93E0E035
:1005A400EA930E941001E9E3EA93E0E0EA930E94EF
:1005B4001001EBE3EA93E0E0EA930E941001EBE31D
:1005C400EA93E0E0EA930E941001EBE3EA93E0E0AF
:1005D400EA930E941001F270C1F3CBC01A93E3E2D4
:1005E400EA93E4E0EA930E941001EEE3EA93E0E088
:1005F400EA930E941001EFE3EA93E0E0EA930E9499
:1006040010011E2FE12F85C0E3E2EA93E0E4EA93B0
:100614000E941001E3E1EA93E981EA930E94100148
:10062400E7E3EA93E0E0EA930E941001E5E3EA934A
:10063400E0E0EA930E941001E7E3EA93E0E0EA9342
:100644000E941001E7E3EA93E0E0EA930E941001BC
:10065400E7E3EA93E0E0EA930E941001F270C1F349
:1006640088C01A93E3E2EA93E4E0EA930E9410015B
:10067400E2E3EA93E0E0EA930E941001E3E3EA9301
:10068400E0E0EA930E9410011E2FE12F42C0E3E252
:10069400EA93E0E4EA930E941001E3E1EA93E9813A
:1006A400EA930E941001E3E3EA93E0E0EA930E94F4
:1006B4001001E1E3EA93E0E0EA930E941001E3E32E
:1006C400EA93E0E0EA930E941001E3E3EA93E0E0B6
:1006D400EA930E941001E3E3EA93E0E0EA930E94C4
:1006E4001001F270C1F345C01A93E3E2EA93E4E027
:1006F400EA930E941001E6E3EA93E0E0EA930E94A1
:100704001001E7E3EA93E0E0EA930E9410011E2F50
:10071400E12F19910895E3E2EA93E0E2EA930E945B
:100724001001E3E1EA93E981EF73E054EA930E9454
:100734001001E3E3EA93E0E0EA930E941001E1E3AD
:10074400EA93E0E0EA930E941001E3E3EA93E0E035
:10075400EA930E941001E3E3EA93E0E0EA930E9443
:100764001001E3E3EA93E0E0EA930E941001F270DF
:10077400C1F321960895E3E2EA93E0E8EA930E9444
:100784001001E1E3EA93E0E8EA930E941001E3E355
:10079400EA93E0E8EA930E941001E3E3EA93E0E8D5
:1007A400EA930E941001E3E3EA93E0E8EA930E94EB
:1007B4001001F27019F400000C94D50308952297E7
:1007C4000E94FC09E3E2EA93E3E0EA930E94100149
:1007D400E0E0EE83EF83EA85FB85AE81BF81AE174F
:1007E400BF0798F5EE81FF81AC85BD85EA0FFB1F3D
:1007F400AF01042F352FE7E0EA933A930E941001EA
:10080400E3E0EA930A930E941001E3E3EA93E0E051
:10081400EA930E941001E2E3EA93E0E0EA930E9483
:100824001001E3E3EA93E0E0EA930E9410011E2F33
:10083400EE81FF81A885B985EA0FFB1F1083EE8145
:10084400FF813196EE83FF83C6CF0E94030A2E9662
:10085400089522970E94FC09E3E2EA93E1E1EA9316
:100864000E941001E0E0EE83EF83EA85FB85AE8110
:10087400BF81AE17BF07B8F5EE81FF81AC85BD859A
:10088400EA0FFB1FAF01042F152FE7E0EA931A9339
:100894000E941001E3E0EA930A930E941001EE81A2
:1008A400FF81A885B985AE0FBF1F3C91E3E1EA93B0
:1008B4003A930E941001E7E3EA93E0E0EA930E948E
:1008C4001001E7E7EA93E0E0EA930E941001E7E30E
:1008D400EA93E0E0EA930E941001EE81FF813196F1
:1008E400EE83FF83C2CFE3E3EA93E0E0EA930E945E
:1008F4001001E1E3EA93E0E0EA930E941001E3E3EC
:10090400EA93E0E0EA930E941001E3E3EA93E0E073
:10091400EA930E941001E3E3EA93E0E0EA930E9481
:100924001001F27019F400000C948D0453C0229746
:100934000E94FC09E3E2EA93E2E0EA930E941001D8
:10094400E0E0EE83EF83EA85FB85AE81BF81AE17DD
:10095400BF0710F00C94EC04EE81FF81AC85BD85DB
:10096400EA0FFB1FAF01042F152FE7E0EA931A9358
:100974000E941001E3E0EA930A930E941001E2E36B
:10098400EA93E0E0EA930E941001E6E3EA93E0E0F0
:10099400EA930E9410013E2FE7E3EA93E0E0EA9332
:1009A4000E9410012E2FEE81FF81EE0FFF1FA885FC
:1009B400B985EA0FFB1F3083EE81FF81EE0FFF1F25
:1009C4003196EA0FFB1F2083EE81FF813196EE837F
:1009D400FF83B9CF0E94030A2E96089523970E949D
:1009E400FC09E3E2EA93E0E1EA930E94100110E0DB
:1009F400EBE0EA931A930E941001E0E0EE83EF83A8
:100A0400EB85FC85AE81BF81AE17BF0710F00C9457
:100A14005505EE81FF81AD85BE85EA0FFB1FAF0151
:100A2400342F052FE7E0EA930A930E941001E3E0D4
:100A3400EA933A930E941001EE81FF81EE0FFF1FAB
:100A4400A985BA85AE0FBF1F2C91EE81FF81EE0FF1
:100A5400FF1F3196A985BA85AE0FBF1FEC91E887B9
:100A6400E3E1EA932A930E941001E7E1EA93E9851E
:100A7400EA930E941001E7E3EA93E0E0EA930E941C
:100A84001001E7E7EA93E0E0EA930E941001E7E34C
:100A9400EA93E0E0EA930E941001EE81FF8131962F
:100AA400EE83FF83ADCFE7E3EA93E0E0EA930E94AD
:100AB4001001E5E3EA93E0E0EA930E941001E7E322
:100AC400EA93E0E0EA930E941001E7E3EA93E0E0AE
:100AD400EA930E941001E7E3EA93E0E0EA930E94BC
:100AE4001001F27019F400000C946D050E94030AC1
:100AF4002F96089588249924AA24BB2408950E943B
:100B0400FE0910E00E9481009F010E948100E21B07
:100B1400F30BEA3FA0E0FA0710F0E0E019C00E94EE
:100B24006B09E03099F0103041F40E9471090E2FE6
:100B3400003211F0E0E00CC008C00E9471090E2FD1
:100B4400003211F0E0E004C002C01F5FDECFE1E03C
:100B54000E94050A249608950E94FC0920E030E0D2
:100B64000E948100AF010E948100E41BF50BEA3F63
:100B7400A0E0FA0710F0E0E019C00E946B09E03031
:100B840099F00E9471091E2F0E948100AF01F901A2
:100B9400AE81BF81EA0FFB1F10832F5F3F4FE885B3
:100BA400F9852E173F0708F4DECFE1E00E94030A1F
:100BB4002A96089528970E94FC0910E00E946B0968
:100BC400E03009F472C30E9471090E2FE1E0EA9348
:100BD4000E947800E02FE03209F45AC3E13291F424
:100BE4000E948105E03009F454C3E1E4EA930E94D1
:100BF4007F09E0E0EA930E947F09E1E0EA930E9422
:100C04007F0946C3E23281F40E948105E03009F491
:100C140040C3E1E4EA930E947F090E941802E03095
:100C240011F40E940F0234C3E33281F40E9481055F
:100C3400E03009F42EC3E1E4EA930E947F090E94A4
:100C44001802E03011F00E94140222C3E83819F5AA
:100C5400E2E0F0E0FA93EA93E0E6F1E0FA93EA9353
:100C64000E94AE05E03009F414C30E948105E0300F
:100C740009F40FC3E1E4EA930E947F0980906001C4
:100C84009924F82DE0E0DF01E0916101F0E0EA2B26
:100C9400FB2B4F01FDC2E93819F5E2E0F0E0FA93CD
:100CA400EA93E0E6F1E0FA93EA930E94AE05E030BD
:100CB40009F4EFC20E948105E03009F4EAC2E1E4DC
:100CC400EA930E947F09A0906001BB24FA2DE0E022
:100CD400DF01E0916101F0E0EA2BFB2B5F01D8C258
:100CE400E63BB1F50E948105E03009F4D2C20E94CE
:100CF4001802E03009F4CDC2E1E4EA930E947F09CE
:100D04000E941A02EE83FF8368877987AE81BF81D0
:100D140088859985E8E10E94E109EA930E947F09A8
:100D2400EE81FF81688579850E94F209EA930E9429
:100D34007F09AE81BF8188859985E8E00E94E10939
:100D4400EA930E947F09EE81EA930E947F09A0C280
:100D5400E73BA9F40E948105E03009F49AC20E949D
:100D64001802E03009F495C2E1E4EA930E947F0995
:100D74000E9491023E2F3A930E947F0989C2E43B6C
:100D8400A9F40E948105E03009F483C20E9418028C
:100D9400E03009F47EC2E1E4EA930E947F090E94F4
:100DA400AD023E2F3A930E947F0972C2E43A09F5DC
:100DB400E1E0F0E0FA93EA93E0E6F1E0FA93EA93F3
:100DC4000E94AE05E03009F464C20E948105E0305F
:100DD40009F45FC20E941802E03009F45AC2E1E447
:100DE400EA930E947F09E0916001EA930E94C302A2
:100DF4004FC2E33BA9F40E948105E03081F00E94D8
:100E04001802E03009F445C2E1E4EA930E947F0944
:100E14000E94F0023E2F3A930E947F0911E039C2EA
:100E2400E33A09F5E1E0F0E0FA93EA93E0E6F1E071
:100E3400FA93EA930E94AE05E03009F42AC20E94B4
:100E44008105E03009F425C20E941802E03009F45B
:100E540020C2E1E4EA930E947F09E0916001EA93F1
:100E64000E94060315C2E23BA9F40E948105E0300A
:100E740009F40FC20E941802E03009F40AC2E1E446
:100E8400EA930E947F090E9433033E2F3A930E9403
:100E94007F09FEC1E23A09F5E1E0F0E0FA93EA9352
:100EA400E0E6F1E0FA93EA930E94AE05E03009F43B
:100EB400F0C10E948105E03009F4EBC10E941802E0
:100EC400E03009F4E6C1E1E4EA930E947F09E0918D
:100ED4006001EA930E944903DBC1E53BA9F40E9447
:100EE4008105E03009F4D5C10E941802E03009F40C
:100EF400D0C1E1E4EA930E947F090E9476033E2F69
:100F04003A930E947F09C4C1E53A01F5E1E0F0E0BB
:100F1400FA93EA93E0E6F1E0FA93EA930E94AE05CD
:100F2400E03029F40E948105E03009F4B2C10E9446
:100F34001802E03009F4ADC1E1E4EA930E947F09AC
:100F4400E0916001EA930E948D03A2C1E63A89F41C
:100F54000E948105E03009F49CC10E941802E0302F
:100F640009F497C1E1E4EA930E947F090E94BD035A
:100F74008FC1E13B11F00C941F08E4E0F0E0FA9318
:100F8400EA93E0E6F1E0FA93EA930E94AE05E030DA
:100F940009F47FC10E948105E03009F47AC10E94FE
:100FA4001802E03009F475C1E0916101F0E0EC87CA
:100FB400FD87FC85E0E0DF01E0916001F0E0EA2BD1
:100FC400FB2BEC87FD87E0916301F0E0EA87FB8768
:100FD400FA85E0E0DF01E0916201F0E0EA2BFB2B0F
:100FE400EA87FB87AA85BB85AA16BB0608F451C10C
:100FF400E1E4EA930E947F09EC85FD85FA93EA9384
:10100400EC85FD85FA93EA93E0E6F1E0FA93EA933E
:101014000E94E10340E050E0EA85FB854E175F073C
:1010240058F4A0E6B1E0A40FB51FEC91EA930E9436
:101034007F094F5F5F4FF0CF2BC1E13A11F00C9461
:101044008208E4E0F0E0FA93EA93E0E6F1E0FA9350
:10105400EA930E94AE05E03009F41BC10E948105A9
:10106400E03009F416C10E941802E03009F411C1FD
:10107400E0916101F0E0EC87FD87FC85E0E0DF01B1
:10108400E0916001F0E0EA2BFB2BEC87FD87E09117
:101094006301F0E0EA87FB87FA85E0E0DF01E09195
:1010A4006201F0E0EA2BFB2BEA87FB87AA85BB856C
:1010B400AA16BB0608F4EDC0E1E4EA930E947F0996
:1010C400EA85FB85FA93EA93E0E6F1E0FA93EA9382
:1010D4000E94AE05E03009F4DCC0E1E4EA930E942A
:1010E4007F09EC85FD85FA93EA93EC85FD85FA93F7
:1010F400EA93E0E6F1E0FA93EA930E942B04C8C075
:10110400E03B11F00C94E808E4E0F0E0FA93EA9391
:10111400E0E6F1E0FA93EA930E94AE05E03009F4C8
:10112400B8C00E948105E03009F4B3C00E941802DF
:10113400E03009F4AEC0E0916101F0E0EC87FD8796
:10114400FC85E0E0DF01E0916001F0E0EA2BFB2B9D
:10115400EC87FD87E0916301F0E0EA87FB87FA857D
:10116400E0E0DF01E0916201F0E0EA2BFB2BEA878B
:10117400FB87AA85BB858A169B0608F48AC0E1E42E
:10118400EA930E947F09EC85FD85FA93EA93EC8546
:10119400FD85FA93EA93E0E6F1E0FA93EA930E947C
:1011A400990440E050E0EA85FB85EE0FFF1F4E17DF
:1011B4005F0758F4A0E6B1E0A40FB51FEC91EA93E1
:1011C4000E947F094F5F5F4FEECF62C0E03A11F09B
:1011D4000C944B09E4E0F0E0FA93EA93E0E6F1E0E2
:1011E400FA93EA930E94AE05E03009F452C00E94DB
:1011F4008105E03009F44DC00E941802E03009F482
:1012040048C0E0916101F0E0EC87FD87FC85E0E0F7
:10121400DF01E0916001F0E0EA2BFB2BEC87FD8716
:10122400E0916301F0E0EA87FB87FA85E0E0DF0103
:10123400E0916201F0E0EA2BFB2BEA87FB87AA85A9
:10124400BB858A169B0628F1E1E4EA930E947F0994
:10125400EA85FB85EE0FFF1FFA93EA93E0E6F1E0DF
:10126400FA93EA930E94AE05E03099F0E1E4EA9340
:101274000E947F09EC85FD85FA93EA93EC85FD8550
:10128400FA93EA93E0E6F1E0FA93EA930E94F00419
:1012940011E0E0E0EA930E947800103011F0E1E4FC
:1012A40001C0E5E4EA930E947F090E94030A2E9696
:1012B4000895E8E9EAB9E6E8E0BDE0E0E0BDE7E08A
:1012C400E9B9E0E0E093A102E093A002CC24DD249C
:1012D4000895CD1411F4E0E00895E1E008951A931F
:1012E400CD14F1F3ED2DF0E0E05AFD4F1081D394CD
:1012F400EFE3DE22E12F199108951A93E091A10200
:10130400EF5F1E2F1F73E091A002E117E1F3E0915C
:10131400A102F0E0EE55FD4FA981A0831093A10234
:10132400559A188122960895AA93BA93EA93EFB72F
:10133400EA93AC2DB0E0A05ABD4FECB1EC93C3944A
:10134400EFE3CE22E991EFBFE991B991A991189504
:10135400AA93EA93FA93EFB7EA93E091A002A091DB
:10136400A102EA17A1F0E8B3A8E0EA27E8BBE091FC
:10137400A002F0E0EE55FD4FE081ECB9E091A0024F
:10138400EF5FE093A002EF73E093A00201C05598D1
:10139400E991EFBFF991E991A9911895EA2BFB2BFB
:1013A400682B792B0895EE230E2EFD01BC0131F03C
:1013B400EE0FFF1F661F771F0A94D1F70895EE23DF
:1013C4000E2EFD01BC0131F076956795F795E795F2
:1013D4000A94D1F7089576956795F795E79508955A
:1013E400E62FF72F60E070E008957A936A93FA93FA
:1013F400EA9308955A934A933A932A931A930A9331
:1014040008955D814C813B812A8119810881089569
:00000001FF
