:200000000C9453141895189518951895189518951895189518951895189518951895189563
:20002000189518950C94F000189518950C94EA130C940914189518950C94B200189518951C
:2000400018951895189518954156524E4F434400002001F301DC0111D80101D20101D40159
:200060000FCC0104D60101D0010BC60101CA0104C8010BBB0101BB0101DF010DCE0107DA6A
:200080000128E10101E30101E50101E90101E70101EB011BED0101EF0101F101FB0062017D
:2000A000CF0545051FA20501A705049A0502A90501AB0501AD0501C8051555050163050151
:2000C0008005018305018805018B05018E0505B00501B30501B60501B905016C0501660593
:2000E00001790501760502BC0501BF05015A0501C20501C505FB62010606DB0518E2050140
:20010000E50506FB0501FF0502E70502EA0501010620EE0501F10501F40501F805090306EF
:20012000FB0014036900000000090060008E2D000DE806B902E006D004E003BF09B70160ED
:2001400009BF089507B9369A0895839B02C000E00895EBE6F0E0008111811695079516950A
:2001600007950895FA93EA932BD05FB76BB700E00BBF04B115B1E9E6F0E020813181200FC3
:20018000311F20833183EDE6F0E0008103950083083081F4022F132F43E00E946D14EBE642
:2001A000F0E00083118300E000936D00E9E6F0E0008301836BBF5FBF0BD0E991F9911895FE
:2001C0006A935A934A933A932A931A930A93089509911991299139914991599169910895C4
:2001E0009A938A93FA93EA933A922A921A920A927A93E6DF8FB79BB700E00BBF00916E00C8
:20020000002321F0EEE6F0E00A95008302E09ADF9BBF8FBFDDDF7991099019902990399057
:20022000E991F991899199911895F89400936E0078940895E199FECF30E03FBB0EBB1DBBA1
:20024000E29AE19A0895E199FECF10E01FBB0EBBE09A0DB3089507E10E94DC1309EF0ABB23
:2002600000E00BBB0AEA07BBC498C49A00EF04BB00E005BB00EB01BB00E002BB0E9498009C
:20028000789401E010E00895C1D09ED30AE00E941501BFD0F1F700E00E9423010E94790AFE
:2002A0000E94410880E090E0B8D09130E8F31091740000B30870012799F008E10E941501CD
:2002C000A8D0F1F783990CC010E008E00E94D1070E94410801E000937600A6D009F085D0EB
:2002E00000B308700093740000918000002309F442C09ED000FF02C001E001C000E0109147
:200300007300011741F00093730008E475D00091730072D070D09AD007FF02C001E001C090
:2003200000E010916000011741F00093600009E463D00091600060D05ED088D004FF06C010
:2003400007E45AD00E94231057D055D000917F000670043059F400E0009380006ED002E449
:200360004BD078D0012F48D075D046D006E00E9415014FD0F1F70E944D14002309F497CF49
:200380000E942A14E0E5F0E00C94E81470D0F3CF9BD1F1CF19D3EFCF70D3EDCF04D4EBCFE3
:2003A000B3D4E9CF39D4E7CF54D4E5CF78D4E3CF8AD4E1CFB6D4DFCF01E41ED0DCCF9FD42A
:2003C000DACFFBD4D8CF3DD5D6CF07D3D4CFE0D2D2CFC3D2D0CFE5D2CECF41D5CCCF48D521
:2003E000CACF97D5C8CF05E4E8CF0E948E0D01E000938D01089501E410E00C943C149A93F3
:200400008A932BD0802F92D5002308959A938A93089500916E00002308950FEFE82FF92F0B
:2004200023D00083019608950091AC02002308950E94620D00937F000895009373000E94AB
:20044000970A0C943B0D00E000938000EFE7F0E00081089509E00C9479100E942A14902FAB
:200460000C942A14E62DF72DEF57FF4F08950E943815F0D040805180642C752CEED0F1D046
:2004800019F4F3D009F4B1DFEE240E942A14A02E0E942A14B02E0E942A140E942A14D2D01F
:2004A00009F4B9C0C5DFE5D007C0082F0E94D313C02E0C2DA1DFE6D00B2DBAD008F4A4C068
:2004C000BDD029F0C3DF07FF0FC0067069F400EBA01650F400EAA01611F407E08DDF07E068
:2004E000C02EEE24E394E5CF0A2D005909F446C00051C1F1005109F445C00A9509F474C018
:200500000A9509F475C00A9509F477C00A9509F477C00A9551F20B5629F00250E1F00E5087
:20052000F1F0C7CF7BD020F4082F0E94B90BC0CFAED028F4082F00520E94D90BB9CF74DF35
:2005400031F071D020F4082F0E94F00BB1CF97D00E943D0CADCF93D00E94A90CA9CF082F9A
:20056000005CEACF8CD0E3E6F0E020813181E22FF32F0995C02E012F3FDF9BCF082F0E94CE
:200580007910F8CF7CD02A2F3B2F86D060E070E00E94AE14452B462B472BF1F46FD00E9499
:2005A000921281D083D07F704F3350456044794011F421E001C020E030E078D04F3350415E
:2005C0006847794011F401E001C000E0022B032B642C752C09F441D06ED000810DDF3DD0DA
:2005E0006AD0C0803BD065CF4AD00E94421360CF182F01E00E94A5135BCF182F00E0FACF66
:20060000082F0E94CA1354CF0CD0EE2011F006E401C001E4F1DEEFE00C944915803200E058
:2006200037C000E0E9CE803001E0900700E031C043D0081719072A072B07089500918000D0
:2006400001300895902E0E942A14802E912A6ED400230895E9EAF2E008950FEF600E701E87
:20066000089500918D01002308950091750000230895882D992DA0E0B0E0089522D0082FE7
:20068000192F08958F5F9F4FAF4FBF4F089580369007A007B0070895442D552D56954795EE
:2006A00008950E944C0DEFE6F0E0089540815181628173810895D6CE10E0080D191D20E07A
:2006C000089521E830E008950E943815C090AB021ED1C0DF40805180C4DF19F4C6DF09F46A
:2006E00084DE0E942A14E02E0E942A14A02E0E942A140E942A14A6DF09F4D9C00E942A1441
:20070000B8DF03C00E942A14BDDF0A2D91DF08F4CEC094DFB9F30E2D005A09F46FC00051A1
:2007200099F10A9509F48EC00A9509F4B5C00A9509F4B8C00D5641F00250F9F00E5009F1F9
:20074000005309F47BC0DECF69DF20F4DBD00E94AA0BDACF9CDF28F4D5D000520E94BD0B62
:20076000D3CF62DE31F05FDF20F4CCD00E94DD0BCBCFC2D00E943A0CC7CFBED00E943F0CD9
:20078000C3CFC0D0005CEACF009179000023A1F49DD0CAD09BD0D5D0BDD009F0B5CF91DFCF
:2007A000C8D0D2D00E94B311B2D06414750408F0ABCF0FEF81D0F9CF7DD07CD00A2D7CDF72
:2007C00080179107A207B20709F09ECFC0D0AE162F0754DF18F40A19104005C05DDF041BC6
:2007E000150B0F5F1F4F0E94451291D002C00FEF63D064147504D8F38AD086CF75D094D09C
:2008000073D00F5F1F4F86D009F07ECF4A2D59DFE82FF92F042D152D16950795E01BF10B7E
:20082000319687D00E231F230E94B01070D06414750408F069CF0FEF3FD0F9CF5DD00E94C0
:200840001C0D62CF0E942A14202FCC2009F13BD07BD06AD04C2D50E041505040652F660FC6
:20086000660B762F482359236A237B232CD0212F220F220B401751076207720709F044CF09
:2008800020DF21D0009510955FD00E9412133CCFF6DE0E94F01238CF0E942A14182F0E94E5
:2008A000521332CF0E942A140E9490132DCFEFE00C9449150E942A14D5DD008301E0600E80
:2008C00000E0701E08950C2D10E03BC00E942A14202F042D152D35D03AD0E823F923EE0F14
:2008E000FF1F0E1B1F0B08950E942A14202F25D02BD0000F111F08950E942A14202F082F89
:20090000192F08950E942A14102F082F0895662477240895E02FF12FA7DD20830ED014D025
:2009200016D00E171F070895E02FF12F9DDD2083089503D0009510950895042D152D169538
:200940000795015010400895082319230895E42DF52DF695E7953197089512D081F0A1DE48
:2009600012D00E7F1F700E33104011F006E401C001E442DD0E94181101E0009375000895E7
:20098000D5D20023089500831183228333830895F7DF31F00E945A1100E0009375002BDDED
:2009A000089534DDEDDF69F00E94861180E090E001C033DD4FDE0081118180179107C8F360
:2009C0001ADD899199910895DBDF31F008E410E020E00E9462150FDD08954AD08A3421F4F9
:2009E0000E942A14802F02C006E406DD843521F40E942A14802F02C006E4FEDC813421F42C
:200A00000E942A14802F02C006E4F6DC873421F40E942A14802F02C006E4EEDC853721F423
:200A20000E942A14802F02C006E4E6DC803721F40E942A14802F02C006E4DEDC873621F426
:200A40000E942A14802F02C006E4D6DC823771F497DF51F0D0DC06E00E941501DADCF1F7EC
:200A6000F8940C94001E02C006E4C6DC899108958A930E942A14802F0895C1DC09F491C0F3
:200A8000092FEEE9F0E00C94E41480936100B3DCE0EAFFE031970E2F0F2BE1F7009161002A
:200AA0000E94FF100E94DC137CC0082F0E94381001E476C0809362000CEE1CE0E3E6F0E078
:200AC00000831183F5CF0E944410F2CFE6E8F1E0008100838183ECCFE6E8F1E011818083EE
:200AE000118320E0082F0E941C0DE2CFE8E8F1E0EFCFE8E8F1E011818083118321E0F2CFC4
:200B0000E2E8F1E0E5CFE2E8F1E011818083D9CFE4E8F1E0DDCFE4E8F1E0F7CF482FE4E8BF
:200B2000F1E020813181E2E8F1E0008111810E944D10BECF182F00E00E941A01082F0E949A
:200B4000790AB6CF11E0082F0E94E810B1CF10E0FACF80DDDACF7EDDBBCF8093AB02A8CF70
:200B600080937900A5CF80937A00A2CF809377009FCF809378009CCF80937C0099CF80937F
:200B80007B0096CF80937D0093CF80937E0090CF882319F0BC9AC4988BCFBC9889CF06E43D
:200BA0002BDC0FDF089564DFEBDEA1F1082FE6EFF0E00C94E4140091610010E00E943C14BD
:200BC00001E427C00E948810F8CF00E8F6CF0E94A500F3CF00E00E942301EFCF62DDD3DE3E
:200BE000ECCF61DD0181E9CF5EDD02811381E6CF5ADD0381E2CF01E00E94F710DECF00E038
:200C0000FBCF28DCDACF00918000D7CF06E4F4DB06E4F2DB89910895F9DBB2DE81F00EDDBF
:200C200031F40ED005E5E8DB0BD006E407C00CD0F8DC092FE1DB082FDFDB01E4DDDBC1CEB7
:200C40000AEA10E00C943C140E94200C802F912F08950E94431505DD19F407DD09F4C5DB7C
:200C60000E942A140E942A14902FA02F0FD0802F912BA22BB22B84DE31F001DD2A2F3B2F0E
:200C80000E94F50BB8DBE4E00C945415AA0FAA0BBA2F0E942A14212F220F220B0895B6DB3F
:200CA000C7DB6EDE71F0CFDB07FF03C000E0C5DBCBDFB7DC092FA0DB10E0082F0E943C14E9
:200CC0009ADB7FDE0895B4DB5BDEA1F0BCDB07FF10C00670043039F40ED00E94960B00E007
:200CE0000093800006C000917F00067011F40E94970A81DB089501E000938000089540DEA5
:200D000011F08FDC78DB089593DB3ADE49F0F3DF9DDB07FF05C00670043011F40E947E0ACA
:200D2000089586DB2DDE89F08EDB07FF0DC0E3DF00916200002319F00E94690B02C00E949A
:200D4000A20A00E00093800056DB08955FDB0E942A147CDF0E942A14102F912B90DC31DE5B
:200D600008950E944315A02FB12F922F80E009C00E942A1410E0EA2FFB2FE80FF11F0083A6
:200D800083958917A8F3E4E00C9454150E9443150E942A145BDFA12F79DF902BA12BB22B93
:200DA0000E942A14A02BB12B0E942A14B02B67DC2A2F3B2FE4E00C94541528E002E312E03F
:200DC000D0DF28E00AE312E0CCDF28E002E412E0C8DF28E00AE412E0C4DF24E102E512E0E2
:200DE000C0DF24E106E612E0BCDF24E10AE712E0B8DF24E10EE812E0B4DF0E942A14009364
:200E0000A2020E942A140093A3020E942A140093A8029CDF1FDC008311830E942A140093F9
:200E2000AB02B4DFE4EAF2E0AEDD0E942A140093AC02A6DD11F001E401C006E410E00C9482
:200E40003C14E4DA0E942A1408DB802F912B98DD21F015DC0E948C10CEDAB3DD0895CFDA23
:200E600029F0182F092F0E94D107C5DAAADD08950E9441152C970E942A14A02F0E942A1453
:200E8000802FEBDA402EAA23A9F4883020F40E942A1408830BC0A0E00E942A14EC2FFD2F5D
:200EA000B0E0EA0FFB1F00831DD0B0F769DDB1F020D013C065DD91F01CD0883018F40E81CC
:200EC0009BDA0BC0A0E0EC2FFD2F3696B0E0EA0FFB1F008191DA06D0B0F78DDA2C96E6E044
:200EE0000C945215A395082F0695069506950A17089555245A924A92692F482F50E02C2F12
:200F00003D2F285F3F4F0C2F1D2F0E5F1F4F0C944C0836DD51F00E94A407002321F001E440
:200F200010E00C943C1406E467DA08950E942A140E942A140032104021F005E45DDA00E0B6
:200F4000089559DA01E00895F8941A932A933A934A935A930FEF1FEF26B3207458E030E0F5
:200F60000317130799F040E238B3342738BB36B330742317232F11F05A9551F030E00A9560
:200F800009F41A953FE13A95F1F7E9CF00E002C001E000C0599149913991299119917894D5
:200FA00008950E944015602F512E80E090E0A0E0B0E00091770060907800600E04E0600E7F
:200FC000442407C04BD010E0E02F4DD009F050D04394009177004016A8F3082F192F2A2FEA
:200FE0003B2F44E00E94A614862F90E0A0E0B0E0800F911FA21FB31F442403C039D02ED0CE
:201000004394009178004016C8F3C39838D035D056D2442407C0C59852D2B695A7959795EC
:201020008795439410E0E62D1ED0082F24F480FFF2CFC59AF1CF00FF02C0C59A01C0C598E0
:201040001ED03DD2442403C018D0C19A43944514D8F335D2C39AE7E00C9451158F5F9F4F1D
:20106000AF4FBF4F0895F0E031974E161F070895880F991FAA1FBB1F0895C19820C2C19AE3
:201080001EC2C19AC3981BD21AD219D218D217D2F4DFF5DFC39A08950E943815C02ED12EA6
:2010A000A22FB32F842E952EE62EAF84B888C398042F152F0150104079D0C00ED11EA00F59
:2010C000B11F81E091E0B6FC02C0D7DFF8D171D038F077D029F090D0080D191D74D004C0FF
:2010E000612E7724680C791C4424552418C0C598E6D152D018F4002309F081E06AD020F4F7
:20110000012F4ED008F491E0882311F4119781E0992321F40FEFC00ED01E91E060D0E62D1C
:20112000F72D31974E165F0678F4B69B03C05CD00C9301C039D0EE2021F0B69BD8CFC59A6F
:20114000D7CF55D0A1F2FBCFB69B02C04DD003C080950C9108230C93EE2021F0B69B04C0C4
:20116000C59A03C044D0E1F7C598B7FC10C087DFA6D10FE3B0220A2D0B2949F080E002C01A
:201180007CDF839590E08A159B05D0F3C19A97D1C39AE1E10C944915880F990F00917A0040
:2011A00010E0401651060895082F29C043E00C946D1400E00C9300917A00109179000117D5
:2011C0000895012F08C0609079007724600E711E08950091790010917A000117089501E021
:2011E000400E00E0501E08950C91082B0895EC2DFD2D008109230895012F10E0089500956A
:201200001C9110231C9308950E943915802E912EA22FB32FA42EB52EC62ED72EC3980FEF8B
:20122000A00EB01E0A2D1B2DC1DF402E512E6FD011F0840C911E6ED011F0A40DB51D81E084
:2012400091E06BD053D166D011F000E00C9367D038F0B7DF29F0D0DF0A0D1B1DB4DF04C0A5
:20126000612E77246A0C7B1C442455241CC0C5983DD192DF18F4002309F081E0AADF20F478
:20128000012F8EDF08F491E0992331F440D019F00FEF800E901E91E0882321F43BD009F0DB
:2012A000119781E09CDF4614570434D068F431F0B69B03C099DF0C9301C076DF28D0C1F288
:2012C0002FD0A9F2C59AD4CF41F0B69B02C08CDF03C080950C9108230C9319D029F020D092
:2012E00011F0C59A01C0C598C19A00D1FFD00C2D0D2941F080E011D0839590E08C159D05C9
:20130000D0F3C19AF3D0C39AEEE00C944A15082D092908950A2F0B2B0895C198E7C04BCF98
:20132000E82DF92D0081092308950E943D15A02FB12F422E532E842F952F0FEF400E501E63
:20134000042D152D33DFA00FB11F66246394E5DFCDD02FDF58F035DF49F04EDF040D151D94
:20136000809079009924800E911E04C0812E9924840C951C4424552410C0062D40DFB6D0F0
:20138000660C0CDF20F4002311F066246394662019F411976624639422DF4814590430F49D
:2013A000B69BEBCF0C9106290C93E9CFB69B03C00C91062903C060940C9106210C93C19AAA
:2013C00095D094D0082F092B21F0A0E009D0F0F3C19A8CD000E000938000EAE00C944E1515
:2013E000C19884D0A395B0E0A817B90708950E943D15A02FB12F842F952F21503040C39806
:20140000022F132FD3DEA00FB11F442443945C9000917900002319F401E000938B017FDF66
:2014200038F0CFDE29F0E8DE020F131FCCDE04C0612E7724620E731E00918B01002311F0DB
:20144000622E732E6ADF52D08824992418C0C5984DD0440CBEDE50F4CFDE8016910630F407
:2014600000918B01002311F444244394442019F45E904424439401E0800E00E0901E8614B3
:20148000970428F4042D052111F3C59AE1CF0C91042111F0C59A01C0C598C19A27D026D0A3
:2014A000082F092B21F0A0E09BDFF0F3C19A1ED0C39A00E000938B01EAE00C944E150091D0
:2014C0008A010023C79A11F4C798089501E001C0039510918A010117D8F3C79801E001C0B2
:2014E000039510918A010117D8F30895C79AC79808951FEF101B10938A01089503D099F0EB
:2015000009D011C0E9D400E000938E0100918D010023089535D400E000938D01089503D009
:2015200004E00C94150110E009E00C94D10701D004C010E008E00C94D107ECD301E00093A8
:201540008E01E9CF269710E062D071F5F2DF68D000E1088300917D00098300917E000A8354
:2015600000E010E023D036D02DD05ED001E077D065D078D059D000E0088360D06BD076D08D
:2015800011F078D0E1F74CD05CD023D0CCDF63D06DD011F06FD0E1F743D00CD01BD06FD0A3
:2015A0000C81077F13D0C9DF269608951A930A9370D07FD008E0088367D060E045E073D009
:2015C00000E008950D810A830C810860098308E1088300E05AD05DD06CC00AE053D061E0CD
:2015E00040E161D000E003D6088301E000D6098301E008951A930A9360E060D0295F57D02B
:2016000043D060E045E15DD0295F3F4F51C00CE039D061E047D00B810023089557D0802F8E
:2016200010E00BE00C94D10710E00CE00C94D10745D02C5F3CD000E00883098326D060E02A
:20164000089500E1088300917C00098300917B000A83089527D000E10C9415010DE00883AC
:2016600000E0089541E02DD02B5F21C02BD206700430089500916E000023089509830D8147
:201680000A8308950E94D10700E010E01A930A93089560E045E150E02C2F3D2F2B5F3F4F7A
:2016A0000C2F089541E050E02C2F3D2F2B5F3F4F0C2F1D2F0E5F1F4F0C944C0845E001C0E6
:2016C00040E250E02C2F3D2F08959A938A9326970895269710E09BDF39F500918000002327
:2016E00031F027DFB8DFC2DF11F0C4DFE1F79CDF01E0B5DFA3DFB6DF93DFA3DF00E010E044
:2017000055DF68DF5FDF90DF00E0088397DFA2DFADDF11F0AFDFE1F783DF4CDF5BDFAFDFF7
:201720000C81077F53DF09DF26960895EBDE09F0F1DE07D0F4DE9ADF11F09CDFE1F706D046
:20174000F7CE00E28AC404D02B5FB1DF00E485C440E1B7CF06D00AD0108308950B2FF4D2F2
:2017600010E0E02FF0E00895E82FF0E0E157FE4F0895F7DFFBDF008108950ED0812F09D0BF
:201780000A2FBDD30DD010D080838991A991089510810DD010E10895AA938A93A02F08950D
:2017A000EA2FF0E00895F0E0E155FE4F089500E1C8C3D7DFF9DF00810895EEDF812F412FAE
:2017C00008D0FBD30A2FC0D2CCDF07D0DDCF0091A30210E020E030E00895E355FD4F089576
:2017E000B3D2BFDFFADF0081089527D000831183228333830895F0E01AD01FD014D0F7D372
:20180000C4D31091AE0117D01091AD010EE199C3232F220F220B11D000833183228323834D
:201820000895E4EAF2E0108116500EE18AC3808191810697192F0FE184C3E5E6F0E00895D1
:20184000FCDF13C07ED3EFE6F0E00FD03F700F331045204439400895E4DFE4EAF2E0008161
:20186000118106501040E7DF90C300811181228133810895422FAEDFA0C3ACDF8CC38CDF6A
:20188000822F95DF1A2F01E14BD002E15AD314E003E157D312E004E1D5DF11F421E001C079
:2018A00020E041D011F401E001C000E0022B032B10E149F042D000E222D313E10FE11FD34C
:2018C00014E10FE108C03ED00DE119D313E10CE116D314E10CE113D3BEDEB5DF11F421E0AB
:2018E00001C020E020D011F401E001C000E0022B032B11F01FE101C01CE100E135D300E1CC
:2019000068DF49D3027011F0B5DE39F78991A991089500E129D310E10091A202F0C20FE198
:2019200010D3182F089530E040815181628173814F33504168477940089502E2E0D211E1C6
:2019400001E204C00FE1DBD211E10EE1D8D212E108958A93802F00E1E3DF01E1F2D211E022
:2019600002E170DF11F421E001C020E0DCDF11F401E001C000E0022B032B10E129F0DDDF0B
:201980000FE1BDD210E204C0DDDF0CE1B8D21DE1C0DF8991089516D011D000E008830983CD
:2019A0009A838B834BDE12D000E048DE0FD01C810D812896899199910895098310E00AE0DC
:2019C0000C94D1079A938A93289703C079DE2A5F4CCE802F912F0895F5DF04E908830CE085
:2019E000098300E03AD3EADF01E028DEEFDF9883898302E023DEACDE2A5F14D006D02A5F90
:201A0000A4DED5CF0AE00E94D1073EDE61E058CE9FDE2C5F07C09CDE2B5F04C052DE07D01B
:201A20000B5F02C005D00E5F1F4F0C944C082E5F3F4F0C2F1D2F08950E9443152697A02F11
:201A4000B12F822F823098F4EBDD082F00610883B983AA8300E010E0A9DDBCDD10DE2C81D9
:201A600008E010E0482F0E947314022BAFDD2696E4E00C9454152697D3DD9CDDABDD08D066
:201A8000007E09830D8107700A83A3DD2696089508E108830C81089528970E94410810E099
:201AA00001E00E94D10700E0C9DD0ADE0AD00A5F1F4F0E944C08388129811A810B8128966E
:201AC0000895B5CF8A93249780B38870A9DDC6DDB5DDAEDD9DDF00B30870802B11F000E069
:201AE00003C00B810F7100682496899108958A932A9795DDB3DD10E07DDD0DE108838823F0
:201B00000E8111F0006801C00F7704D079DD2A968991089509830F810A8308950E944115A7
:201B20002A978399B7C000918E01002339F410E069DF295F77DF3F8108856ADECAD0A0E01C
:201B40001A2FCAD0EA2F11DE0083A395A032C0F30091A302003620F03ADE1DD200938C01B7
:201B6000C3D0C5D08081A8E080FBB6F4C2D011F400E0BDDF142D00E1F7D1BBD009F4A9D091
:201B800000917600013031F4B4D021F400E00093760006C0A0D001C000E0E42D04DE008319
:201BA00086954394AA9501F793959830D0F2AAD0C1F099D012C09BD080A1A0E080FB46F423
:201BC0000B2F07DEE8D1E42DF0E007DE0083439494D011F084D090F3939560D00917104009
:201BE00054F71EDD08E03BDD10E004DD08E167D007DD16DD33DD10E0FDDC0DE160D000DD03
:201C000073D075D08085A0E080FB5EF4142D81DE242D30E0205C3F4FE22FF32FC5DD008387
:201C200004C020E0042D43D0208386955524E091AC02F0E0E056F0404E165F0619F0439467
:201C40004FD010F393959830E0F25CD0C9F04BD013C04DD084A9A0E080FB4EF40B2FB9DD76
:201C60009AD1E42DF0E0E551FD4F0083439445D011F035D088F3939511D0091710404CF7EA
:201C8000CFDCECDC10E0B6DC0DE108830E810F7B41DFB6DC2A96E6E00C9452150091AC023F
:201CA00010E00056104048E050E00C94921410E0005C1F4FE02FF12FE155FE4F089508835C
:201CC0000E81006427CF00E012DF00912F020023089501E00CCF10E10091A20210C1B395CD
:201CE000A395A8300895B0E6442490E00895E92F0DC00091A2024016089586950091AC02C5
:201D0000B01708950091AC0200230895F0E0EE5CFD4F08958A932A97839913C010E072DE50
:201D2000D0DE095F1F4F0E944C083A810B8170DDD0DF8EE1182FD0DF17DD00838395803240
:201D4000C8F32A968991089530E0005610E040E0E42FDCDF50A120E050FB0EF4139556953C
:201D6000301721F0339523952830B0F34395202F269526952695241758F71A95012F089532
:201D80000E94431526978399A0C00091A302003620F040918C011BDD10D180E0A0E000DDA0
:201DA000B6DF9089B8E090FB76F4E82FFCDC1081FEDC8ED011F400E09ADE10E1082F9FD03C
:201DC00087D009F486DF96958395BA9561F788DF30F398DFD9F0B0E6A0E014C0E1DCE658B1
:201DE000FD4F908180E090FB36F4B8DCF6DC40810B2FF0DCE2D06AD021F0B395839588302F
:201E000090F3A3954BDF0A17104044F709DC0DE0D2DBE0DB0DE13DDE006430DCDADB80E069
:201E2000A0E0BEDC74DF908DB8E090FB2EF4082F3EDFAEDC082F63D096958395BA95A9F759
:201E40004FDF78F35FDFE1F0B0E6A0E015C0A8DCE257FD4F908180E090FB3EF47FDCE55127
:201E6000FD4F40810B2FB6DCA8D030D021F0B3958395883088F3A39511DF0A1710403CF7A1
:201E800080E072DC85DC082FABD083958031C8F380E16ADC1081082F54D083958032C8F3E5
:201EA000E5E6A9DCBDDB0DE086DB94DB0DE1F1DD0F7BE4DB8EDB07DF41F043DC10E08DDB81
:201EC000BDDB41DC00E000932F02D1CD969516CF0091A20280170895F8DBE5E68CDCF3DEBB
:201EE00041F02FDC10E079DBA9DB2DDC00E000932F0202D0999108952696899108958A9308
:201F00002497802F202F2073259525952595012F00710595059505950595022B086B088313
:201F20001295107F082F0F70012B47DD01E086DB6FDDCEDF11F487D001C000E02496899159
:201F400008952497212F22952F70206E06D036DD01E074DB5DDD2496089528830295007F8A
:201F60001F70102B198308952497312F307302D0206BECCF359535953595202F2071259590
:201F8000259525952595232B0895249704E9088309E00983DCCF9ADB802FC1DC46DC01E809
:201FA0005EDB0BDD01E04ADB36DD95DEA5CF8DDB10DD142FFCDB192F0895F9DFB0DC35DC37
:201FC00003E84DDBFADC01E039DB25DD92CFEFDF0DE1A6DC0CE1B5DF03E8088308E0F2CFE2
:201FE0002497312F3071C6DF2C62B7DFB0CF249705E9088308EACDCF9A938A932497402FA7
:20200000E6DBE5DF9EDBDADC05E9088308EE098301E014DBFDDC83DA29DB11F02BDBE1F728
:2020200095DB04E00E941501D2DBB5DF017011F021DBD1F7F6DBE4EAF2E0F9DBA6DF249699
:202040008991999108952497EBDA0CE008DBF6DAEFDADEDC0A8124960895E0DAABDABADA48
:2020600017DD0F79082B09830ADBB3DA45DF0895D5DAA0DAAFDA0CDD0F770983882319F091
:20208000098100680983F0CF2697CADA93DAA2DAFFDC006109830D81F7CC0E9441152697EB
:2020A000402E512E822F932FA42FBADA02E1088359824A828EDA03E1088399838A8300E064
:2020C00010E074DA87DA08E108831C811C7F0A2F02950F700695012B09830D810370AA0F59
:2020E000AA0FAA0FA02BAA8374DA2696E6E00C94521594DA8F708B8300E0A0DA45E08EDC3B
:2021000000E09CDA45E18ADC19810A81F5DE089503B30F70006C08950E9444155ADCE9EA06
:20212000F2E0A0810091A802002341F017FF02C011E001C010E02DDB0BE3E1DE880F991F9F
:202140008BDB1A2F08D0FDDE03E056DF01E154DFE3E00C945515182368DB192F0FE10895D0
:202160000E94401536DCA22FB32F442EE9EAF2E060800091A802002341F017FF02C011E054
:2021800001C010E006DB0BE3BADE880F991F439463DB0FC0182F1E7FDFDFD3DE1D91F9DA20
:2021A00001E01EDF1D91F5DA00E01ADF01E024DF0296042D4A94002369F70297162DCBDF57
:2021C000C0DE05E019DF01E117DFE7E00C9451151123E0E3F2E02081318119F02083018393
:2021E00002C00083318301E000932F0208950023E0E3F2E011F00181089500810895045F4B
:20220000A1F0045081F0025061F0035041F00A9521F00A9559F413E009C017E007C01BE030
:2022200005C017E103C01FE101C01FE2012F0895229711E00CE00E94D10701E0088341E0F2
:202240001BD006E00E9415011BD0F1F711E004E00E94D10703EA088300E7098341E014D0E3
:202260002296089507E308831BD008C008E0098317D030E00C2F11C050E021E030E00CC05D
:2022800000916E000023089550E020E104C0098341E050E02FE030E00C2F1D2F0C94F70967
:2022A00041E050E02FE0089550E02FE030E00C2F1D2F0895239718D000E0D9DF21D010E093
:2022C00004E019D0098340E0DFDF10E00CE013D040E0D2DF23960895402E512E822F932F81
:2022E000E9EAF2E0A081B18111E005E00E94D10703E2088308950E94D10700E00883089507
:2023000003E3088300E00983CBDFC0CF2497ECDF00E8ADDF01E30DD003E30BD00FD060E00C
:2023200015D00A8101FD02C0ABDFC9F72496089501E1088340E0B8DF0C94F70940E0B4DF55
:202340000E94F70900E10C94150161E002D00C94040970E04FE050E02C2F3D2F2E5F3F4FF3
:202360000C2F1D2F08950E9441152497B5DF00E152D060D0042D007C7ADF10E006E035D0DE
:2023800011F421E001C020E058D011F401E001C000E0022B032B91F05AD011F4815803C020
:2023A00060D011F481509F4F442455244A165B0648F43BD00E94F7091DD0F8CF5AD05FD091
:2023C0000E94F7092ED007E321D005E3B2DF07E3B0DFB4DF60E0BADF0A8101FD02C050DFAA
:2023E000C9F72496E6E00C9452150E94D107EFE6F0E02DC0019701E0400E00E0501E0895D8
:20240000898341E051DF0E94F70902E3088300E0098340E090CF3BDF07E00883598241E0DA
:202420008ACF10E005E00C94D10740E050E028E030E028C003E00883089530E040815181F8
:20244000628173814F33504168477940089500811181228133813F700F3310452044394000
:2024600008951181228133810F33104128473940089550E00A2F1B2F43E00C946714202F7E
:20248000312F40E0082F192F08950E943F1543D0422E532EE9EAF2E08081918125DF00E109
:2024A00032D066240EC0C6DF0A2F060DE0DE03E120D007E11ED007E324DF07E7D4DED2DE2C
:2024C00063947724082F192F169507956016710650F3C8DE05E3C7DEC5DECADE20D035DFF2
:2024E0000A8101FD02C0CCDED1F72496E8E00C9450150883E42DF52D01914E2E5F2E0983B3
:2025000041E006C001E1C3DE07E00883B98341E0CBDE0C94F7092497A02FB12F089500E151
:202520000C9415010E9441152297D6DE02E073DF81DFA13800E0B00710F000E801C000ECE7
:202540004022498295DE10E007E04FDF11F421E001C020E072DF11F401E001C000E0022B0A
:20256000032B91F074DF11F4805803C07ADF11F480509F4F442455244A165B0658F455DF7B
:202580000E94950937DFF8CF74DF085F1F4F77DF0E94950946DF2296E6E00C9452151BD0CB
:2025A000912FA2DE02E012D045DF2ADF06E309D08B8107E306D00B81182F2496899199918B
:2025C0000895088360E0C5DE0C94040960DE07E0088399839CCF9A938A932497802F0895BB
:2025E0000E94431598DF822F7FDE8CDF23DFA98311D003E10BDF9CDE03E19BDE90DF60E08E
:20260000A5DE0A8101FD02C03BDEC9F72496E4E00C9454153DDE03E10883898341DE46DEB3
:202620000C94F7090E94411576DF822F932F5CDE69DF442413C0FEDE0A2F040D18DE03E17D
:2026400008835524E82FF92FE40DF51D00810FDE07E3E3DE07E707DE05DE43940091AB0250
:20266000401648F303E3FFDD01E3FDDD03E3FBDD03E3F9DD54DF69DE0A8101FD02C000DE2C
:20268000D1F7AFCEA8DF912F2FDE03E09FDF03E0C3DF03E30883898340E0B4DE03E391DF36
:2026A0000B818BCF9A938A932497902F812F1CDE00E4DDDD03E18CDF882371F421DE01E3E6
:2026C000D2DD03E3D0DDD4DD28D03FDE0A8101FD23C0D6DDD1F771CF813071F407E311DEDC
:2026E00005E3C1DDBFDDC4DD18D02FDE0A8101FD13C0C6DDD1F761CF823071F40BE301DE47
:2027000009E3B1DD0BE3AFDDB3DD07D01EDE0A8101FD02C0B5DDD1F750CF0AE00C941501FE
:202720005BDFE2DD00E2098375DF03E16FDE00DE03E1FFDDF2DF60E009DE0A8101FD02C0CC
:202740009FDDC9F72496899108958A932497123089F0002311F484E005C0113011F48CE036
:2027600001C080E05EDE11D0082F0263CADD8363888305C00AD00AE3C4DD0BE3088361E000
:20278000E5DD0B8124968991089503E2088304E0098344CF21DFA8DD69DD4CDE31DE03E39D
:2027A000088360E0EDCF18DF9FDD60DD03E034DF06E32CDE07E3F4CF10E010BD09B908E9DC
:2027C0000AB910936A031093690310937C0310937B030895FA93EA933A932A931A930A9359
:2027E0003FB71CB10091690303950F730093690320916A0309D010833FBF0991199129917A
:202800003991E991F9911895E02FF0E0E75DFC4F0895FA93EA932A931A930A932FB70091AA
:202820007B0310917C03011769F000917C0303950F7000937C03E02FF0E0E559FC4F008167
:202840000CB901C055982FBF099119912991E991F99118950BD0F1F300916A0303950F7391
:2028600000936A0310E0D0DF008108950091690310916A030117089520917B0323952F7055
:2028800030917C032317E1F3E22FF0E0E559FC4F008320937B03559A0895E8DF11F001E097
:2028A000089500E008950CE90DBF03E00EBFCDE1D4E00E942B01002311F00E94881500E01A
:2028C0000BBF0E9444010E94BA150C94BA154A951AF0000F111FFBCF08954A951AF0169544
:2028E0000795FBCF08954A951AF015950795FBCF089500241124EFE0001F111F001C111C7F
:202900000416150610F0041A150AEA95AAF7001F111F402D512D0095109508955195419558
:2029200050400895FF27552312F4F160F7DF112312F4F09507D00E947914F0FD03D0F1FD2C
:20294000EDCF089511950195104008954A952AF0000F111F221F331FF9CF0895002411246C
:2029600022243324E0E2EA9592F0001F111F221F331F001C111C221C331C041615062606DE
:20298000370688F3041A150A260A370AECCF001F111F221F331F402D512D622D732D009585
:2029A00010952095309508955FD0702D5DD0602D5BD0502D59D0402D57D0102C01FA54D015
:2029C000202C52D0302C0895F5DF041B10E003C0EFDF041B150B20E030E005C0E5DF041B25
:2029E000150B260B370BE0F010FC1DC03DD0402D3BD0E00FF11F0417100540E02407340751
:202A000078F446F4C895002D0024E22DF32DE01BF0090994E00FF11F27D0202C25D0302C0F
:202A2000E22DF32D099411F4BEF7ECCF31960EF0319650E060E070E017D0402D4B3F68F0D3
:202A400079F34F3F41F04E3F21F00ED0702D0CD0602D0AD0502D08D0402D041B150B260BBD
:202A6000370B11F3E8F2E2CFC89531960895FA92EA92DA92CA92BA92AA929A928A927A9218
:202A80006A925A924A92BA93AA939A938A930895FF84EE84DD84CC84BB84AA8499848884C5
:202AA0007F806E805D804C80BB81AA8199818881F0E00FB6F894CE0FDF1F0FBE089510E0A0
:202AC0000C943C1422974C2F5D2F4E5F5F4F488359834C2F5D2F5A934A9360E070E04FE5AF
:202AE00055E10E94BD152296089520E02D9302D0E1F7089501501040202F212B08953BBFFD
:202B0000D895EF5FFF4F3F4F0D92F4DFC1F7089502E211E0402E512EE42DF52D30E03BBF58
:202B2000D895002D24D0102DE42DF52D3296D895A02D1DD0B02DE42DF52D3496D895402DF4
:202B400016D0502D14D0E42FF52F302D242F252B202911F0D4DF01C0C8DF07E0400E00E07D
:202B6000501E442D552D40335140B0F208953196D895089500008895FECF0E94371527974A
:202B80000C831D832E83488359836A837B838F88988CCC24DD2401C0BCD0BFD005E20016BE
:202BA00041F00020C9F70C2D1D2D2796E2E10C94481550E040E0D895002D085621F0045057
:202BC00049F441E001C051E00E2F1F2F0F5F1F4F0C831D83A2D0002D085509F442C00B50B9
:202BE00049F00A9581F10B50B1F0045039F00550C1F1D2CFB1D0A080A9D0CECFADD0808135
:202C00009181A4D0E82FF92FA1908E2F9F2FAA2021F27FD0F7CF08E0E02E552311F4442367
:202C200069F480E090E8A0E0B0E0552341F104E6A01692D04080518079F52EC080E090E0E6
:202C4000A0E0B0E41EC00AE0E02E552311F4442319F480E197E2E7CF80E09AECAAE9BBE3F2
:202C600010C000E1E02E552311F4442319F480E090E1D9CF80E090E0A0E0B0E102C0442321
:202C800041F06AD040805180628073807BD00C5F07C062D0408051806624772473D00E5F4E
:202CA00057D004E6A01671F4772062F450946094709404464194500A600A700A2A813B815B
:202CC0000DE24ED0823000E09007A007B007B8F0481659066A067B0690F429D0F3CF495F23
:202CE0002A813B81042F3CD043D0442E552E662E772E1DD0012B022B032B09F44ECF38D057
:202D0000402F405D4A3360F308E7A01641F7495DE7CF2A813B810A2D23C0EC81FD813E8173
:202D20003BBFD895A02C3196EC83FD830895082F192F2A2F3B2F4E2D50E060E070E00E94EE
:202D4000AE14802F912FA22FB32F08951BD00E5F1F4F00831183089515D0E02FF12F0895C7
:202D6000E881F981099501E0C00E00E0D01E0895042D152D262D372D482F592F6A2F7B2F4C
:202D80000C94AE14E82DF92D008111810895011701CB0C01000000FFFFFFFFFFFFFFFFFFFE
:202DA000FFFFFFFFFFFFFFFFFFFFFFFFFFFFFFFFFFFFFFFFFFFFFFFFFFFFFFFFFFFFFFFF33
:202DC000FFFFFFFFFFFFFFFFFFFFFFFFFFFFFFFFFFFFFFFFFFFFFFFFFFFFFFFFFFFFFFFF13
:202DE000FFFFFFFFFFFFFFFFFFFFFFFFFFFFFFFFFFFFFFFFFFFFFFFFFFFFFFFFFFFFFFFFF3
:202E0000FFFFFFFFFFFFFFFFFFFFFFFFFFFFFFFFFFFFFFFFFFFFFFFFFFFFFFFFFFFFFFFFD2
:203C00000C94C41FBB9A0E94A21F03C009E50E94A81F0E94AD1F0F3F09F4B3C00136B1F348
:203C2000013439F40AD10E94AD1F1B2F78010DE0EECF053671F4EE24FF2417B710FDFDCFF0
:203C400003E0F701F4D000E8EED00CE3F016A8F3EECF023641F409E50E94A81F00E00E948C
:203C6000A81F00E8D4CF023431F4E7D00E94AD1FE8D0EED0CCCF073631F4DFD00E94AD1FE2
:203C8000E0D03AD1C6CF023599F417B710FDFDCF11E100E0002E17BFE895CBD0319604911F
:203CA0000E94A81FC6D004910E94A81FBBD0B1CF033629F40E94AD1F802F90E0B8CF03345B
:203CC00061F40E94AD1F902B17B710FDFDCF01E0B0D00C01ACD0A7D0AACF0D3671F40EE14E
:203CE000F01620F00FE30E94A81FA1CF17B710FDFDCF05E09ED09BD09ACF043471F417B7AA
:203D000010FDFDCFEEBAFFBA0E94AD1F0DBBE29AE19AE199FECF01E0DECF043629F4EEBA68
:203D2000FFBAE09A0DB3C0CF023749F417B710FDFDCF09E0E1E0F0E007BF049168CF06349E
:203D400031F417B710FDFDCF09E0E0E0F4CF0E3431F417B710FDFDCF09E0E3E0ECCF013580
:203D600031F417B710FDFDCF09E0E2E0E4CF003511F00C3409F45BCF053451F40DE00E946F
:203D8000A81F17B710FDFDCF46D0E0E0F0E00994003711F403E53BCF043729F405E70E945E
:203DA000A81F00E034CF083721F4C3980E94AD1F3ECF093711F4C39AF9CF0435B9F30335A8
:203DC000A1F401E40E94A81F06E50E94A81F02E50E94A81F0AE40E94A81F04E50E94A81FB3
:203DE00001E40E94A81F07E412CF063529F403E30E94A81F01E30BCF033741F403E00E9450
:203E0000A81F04E90E94A81F0EE101CF0B3109F400CF0FE3FCCE11E1002417BFE8950895FC
:203E2000EEBAFFBA01E0E00E00E0F01E089507BFF5CFF701EE0FFF1F08950E94AD1FB02F40
:203E40000895802F9B2F0E94AD1F202F8C0108950E94D21FC058D801253419F580E090E0AA
:203E600007C00E94AD1FEC2FE80FF0E0008301968A179B07B0F317B710FDFDCF80E090E0B4
:203E80000BC0CEDFEC2FE80FF0E000810DBBE29AE19AE199FECF01968A179B0790F30DE0F7
:203EA0001EC02634D9F424D0C8010E94AD1F402E0E94AD1F502E01E0F7010201B8DF02E023
:203EC000B2DF12970A2F0B2B81F705E0FC01AFDF17B710FDFDCF9FDF06D0E1CF0FE3C0589C
:203EE000E6E00C94D91F870116950795780108958701000F111FFACF9A938A93C801253483
:203F000051F48EDFE09A0DB30E94A81F0197082F092BB9F70EC0263461F4EADFF7018F01CB
:203F20000BD0F701870108D00297082F092BB1F7DADF8991999108950F5F1F4F780104911E
:203F40000C94A81FDD2407E109B908E10AB908950CB95E9BFECF5E9A089500E010E02BE407
:203F600030E05F990DC00150104020403040402F412B422B432BA9F7DD2099F70FEF08957D
:203F8000DD24D3940CB108950FE30DBF01E00EBFC0E4D0E00E94E61F0E94021E0E94E81F8D
:203FA0000C94E81F5A924A92BA93AA939A938A9308955D804C80BB81AA8199818881F0E01E
:203FC0000FB6F894CE0FDF1F0FBE089501E0089500008895FECFFFFFFFFFFFFFFFFFFFFFED
:203FE000FFFFFFFFFFFFFFFFFFFFFFFFFFFFFFFFFFFFFFFFFFFFFFFFFFFFFFFFFFFFFFFFE1
:00000001FF
